:1007C9000231000002210000026F00000E2301B86F
:0C07D90001EE020B024B029302BA031067
:10079B00E4F584F591F5A4F5B1E532453170051218
:1007AB00073880F5E53264014531700512017F8011
:0E07BB00E8E5326402453170E01204D480DBC0
:10073800E4FFFEC2A4D285D2A720A31B30A3FDC329
:10074800EF94FFEE6480948050070FBF00010E8085
:10075800EE75310075320120820312044F20940394
:0307680012024C2E
:01076B00226B
:10017F00E4FFFED2A4C285D2A720A31B30A3FDC3E8
:10018F00EF94FFEE6480948050070FBF00010E8044
:10019F00EE75310075320220A0031205B120A13097
:1001AF00C2A57D107C007FB87E01120310C3E570DD
:1001BF00941EE56F6480948050E3E57025E024334E
:1001CF00F876010876B80570E57070D1056F80CDAF
:1001DF00D2A5208330C2877D107C007FEE7E011276
:1001EF000310C3E570941EE56F6480948050E3E5BF
:1001FF007025E02433F876010876EE0570E570700F
:10020F00D1056F80CDD28720A230C2A67D107C0091
:10021F007F2A7E02120310C3E570941EE56F64807F
:10022F00948050E3E57025E02433F8760208762AAF
:0C023F000570E57070D1056F80CDD2A66F
:01024B002290
:1004D400E4F508F509D2A4D285C2A720A31F30A34E
:1004E400FDC3E50994FFE50864809480500A05097A
:1004F400E50970ED050880E9E4F531F532D2AF1273
:1005040006FB20982320A3FA30A3FDC3E50994FF3A
:10051400E50864809480500A0509E50970ED050832
:1005240080E9E4F531F532221207FBC298EF25E0A9
:1005340024A1F8E6FE08E6FF7D107C00120310C239
:01054400AF07
:010545002293
:080308007D207C007F4B7E028A
:080310008E0C8F0D8C0E8D0F79
:10031800E4F510F511D2AF1206FBAE0CAF0D7C0060
:100328007D641200267C007D0A120026ED2430FF31
:100338001207F3AE0CAF0D7C007D0A1200267C007C
:100348007D0A120026ED2430FF1207F3AE0CAF0D24
:100358007C007D0A120026ED2430FF1207F37F4847
:100368001207F37F7A1207F37F0D1207F37F0A1241
:1003780007F3C2AFE50D450C600312000375891140
:10038800C3E511950FE50E6480F8E5106480985078
:1003980020758C6F758AFFD28C208D09AF0DAE0C3D
:1003A80012066780F4C28D0511E51170D30510801F
:0A03B800CFE50D450C600312076C41
:0103C2002218
:040667008E128F134D
:10066B00EE3395E0FDFCF8F9AA06AB077F327E204E
:10067B007D1C7C001206B7EF240CFFEE34FEAD0799
:10068B00FC758911D3E5139414E5126480948040B2
:10069B001AE49DE49CFF3395E08F8DAF05EFF404D6
:0B06AB00F58BD28E308FFDB297C28F0E
:0106B6002221
:10054600D2AF1206FB7F441207F37F721207F37FC6
:10055600651207F37F611207F37F6D1207F37F6C55
:100566001207F37F611207F37F6E1207F37F64129F
:1005760007F37F201207F37F541207F37F681207F1
:10058600F37F651207F37F6D1207F37F651207F39A
:100596007F0D1207F37F0A1207F3E4FFFE0FBF0079
:0A05A600010EBE07F8BFD0F5C2AF8A
:0105B0002228
:10061000D2AF1206FB7F4D1207F37F651207F37FFF
:100620006C1207F37F651207F37F651207F37F20D3
:100630001207F37F541207F37F681207F37F6512E6
:1006400007F37F6D1207F37F651207F37F0D120723
:10065000F37F0A1207F3E4FFFE0FBF00010EBE078F
:06066000F8BFD0F5C2AFA7
:010666002271
:10044F001205467D207C007F977E041203107D20CD
:10045F007C00E4FFFE1203107D207C007F707E0382
:10046F001203107D207C00E4FFFE1203107D207C20
:10047F00007FBA7E021203107D207C007F937E02E4
:10048F001203101203087D207C00E4FFFE120310FC
:10049F001203087D207C007F937E021203107D20C3
:1004AF007C007FBA7E021203101203087D207C00AD
:1004BF007F0B7E021203101203087D207C007FB891
:0504CF007E0102031094
:10024C001206107D107C007FED7E011203107D08DC
:10025C007C007F727E011203107D087C007FEE7E95
:10026C00011203107D307C007FE47E021203107DAE
:10027C00107C007FEE7E011203107D107C007FE469
:10028C007E021203107D107C007F707E031203101F
:10029C007D107C007F3F7E031203107D107C007F5D
:1002AC00937E021203107D407C007FEE7E011203D0
:1002BC00107D107C00E4FFFE1203107D087C007F93
:1002CC00EE7E011203107D087C007F2A7E02120351
:1002DC00107D5012030A7D107C007FEE7E0112030C
:1002EC00107D1012030A7D107C007FE47E02120345
:0C02FC00107D807C007F937E02020310C6
:10000300C2ACE52245217002C280E522640145218C
:0F0013007002C292E522640245217002C293225C
:10076C00E52245217002D280E52264014521700208
:10077C00D292E522640245217002D2930522E52231
:0F078C0070020521640345217004F521F5222236
:1005B100E4F508F509F50AF50BC3E5099570E56F52
:1005C1006480F8E508648098501DE50925E024332E
:1005D100F8E6FE08E6FF7D107C001203100509E530
:1005E1000970D6050880D2C3E50B9422E50A648020
:1005F10094805015E50B25E02433F8E4F608F60560
:0E0601000BE50B70E2050A80DEE4F56FF57084
:01060F0022C8
:1006FB005387BF75985053877FE4F5BA43A240FDEB
:10070B007C0324F0FD74FF3CFCE4F5BD8CBFAF050E
:10071B00EFF5BE75BD035391FE4392014391025316
:0C072B0092FDC20053B8EF53B7EFD2AC00
:01073700229F
:030023000207E6EB
:0D07E600309802C298309904C299C20032C6
:0807F3002000FDD2008F9922C5
:0307FB00AF992291
:030000000203C335
:0C03C300787FE4F6D8FD75817002040A12
:10002600C2D5EC30E709B2D5E4C39DFDE49CFCEEF5
:1000360030E715B2D5E4C39FFFE49EFE12005CC311
:10004600E49DFDE49CFC800312005C30D507C3E40C
:060056009FFFE49EFE2264
:1006B700C2D5E830E70FB2D5E4C39BFBE49AFAE46E
:1006C70099F9E498F8EC30E717B2D51206ED120065
:1006D700EDE4C39BFBE49AFAE499F9E498F8800304
:1006E7001200ED30D50DE4C39FFFE49EFEE49DFDAF
:0406F700E49CFC2261
:1003CF0002079BE493A3F8E493A34003F68001F2A2
:1003DF0008DFF48029E493A3F85407240CC8C3332F
:1003EF00C4540F4420C8834004F456800146F6DFFE
:1003FF00E4800B01020408102040809007C9E47EBE
:10040F00019360BCA3FF543F30E509541FFEE493F2
:10041F00A360010ECF54C025E060A840B8E493A3B9
:10042F00FAE493A3F8E493A3C8C582C8CAC583CAE4
:10043F00F0A3C8C582C8CAC583CADFE9DEE780BE9C
:0107E5000013
:10005C00BC000BBE0029EF8DF084FFADF022E4CC88
:10006C00F875F008EF2FFFEE33FEEC33FCEE9DEC51
:10007C00984005FCEE9DFE0FD5F0E9E4CEFD22ED97
:10008C00F8F5F0EE8420D21CFEADF075F008EF2FE1
:10009C00FFED33FD4007985006D5F0F222C398FDD2
:0500AC000FD5F0EA226F
:1000B10075F008758200EF2FFFEE33FECD33CDCC06
:1000C10033CCC58233C5829BED9AEC99E582984089
:1000D1000CF582EE9BFEED9AFDEC99FC0FD5F0D666
:1000E100E4CEFBE4CDFAE4CCF9A88222B800C1B990
:1000F1000059BA002DEC8BF084CFCECDFCE5F0CBCE
:10010100F97818EF2FFFEE33FEED33FDEC33FCEB06
:1001110033FB10D703994004EB99FB0FD8E5E4F9C1
:10012100FA227818EF2FFFEE33FEED33FDEC33FCAE
:10013100C933C910D7059BE99A4007EC9BFCE99AA2
:10014100F90FD8E0E4C9FAE4CCFB2275F010EF2FE7
:10015100FFEE33FEED33FDCC33CCC833C810D707E7
:100161009BEC9AE899400AED9BFDEC9AFCE899F822
:0E0171000FD5F0DAE4CDFBE4CCFAE4C8F922B5
:00000001FF
